{
  "_format": "hh-sol-artifact-1",
  "contractName": "Ticket",
  "sourceName": "contracts/Ticket.sol",
  "abi": [
    {
      "inputs": [
        {
          "internalType": "uint256",
          "name": "price",
          "type": "uint256"
        },
        {
          "internalType": "string",
          "name": "symbol",
          "type": "string"
        },
        {
          "internalType": "string",
          "name": "name",
          "type": "string"
        }
      ],
      "stateMutability": "nonpayable",
      "type": "constructor"
    },
    {
      "anonymous": false,
      "inputs": [
        {
          "indexed": true,
          "internalType": "address",
          "name": "owner",
          "type": "address"
        },
        {
          "indexed": true,
          "internalType": "address",
          "name": "approved",
          "type": "address"
        },
        {
          "indexed": true,
          "internalType": "uint256",
          "name": "tokenId",
          "type": "uint256"
        }
      ],
      "name": "Approval",
      "type": "event"
    },
    {
      "anonymous": false,
      "inputs": [
        {
          "indexed": true,
          "internalType": "address",
          "name": "owner",
          "type": "address"
        },
        {
          "indexed": true,
          "internalType": "address",
          "name": "operator",
          "type": "address"
        },
        {
          "indexed": false,
          "internalType": "bool",
          "name": "approved",
          "type": "bool"
        }
      ],
      "name": "ApprovalForAll",
      "type": "event"
    },
    {
      "anonymous": false,
      "inputs": [
        {
          "indexed": true,
          "internalType": "address",
          "name": "previousOwner",
          "type": "address"
        },
        {
          "indexed": true,
          "internalType": "address",
          "name": "newOwner",
          "type": "address"
        }
      ],
      "name": "OwnershipTransferred",
      "type": "event"
    },
    {
      "anonymous": false,
      "inputs": [
        {
          "indexed": true,
          "internalType": "address",
          "name": "from",
          "type": "address"
        },
        {
          "indexed": true,
          "internalType": "address",
          "name": "to",
          "type": "address"
        },
        {
          "indexed": true,
          "internalType": "uint256",
          "name": "tokenId",
          "type": "uint256"
        }
      ],
      "name": "Transfer",
      "type": "event"
    },
    {
      "inputs": [
        {
          "internalType": "address",
          "name": "to",
          "type": "address"
        },
        {
          "internalType": "uint256",
          "name": "tokenId",
          "type": "uint256"
        }
      ],
      "name": "approve",
      "outputs": [],
      "stateMutability": "nonpayable",
      "type": "function"
    },
    {
      "inputs": [
        {
          "internalType": "address",
          "name": "owner",
          "type": "address"
        }
      ],
      "name": "balanceOf",
      "outputs": [
        {
          "internalType": "uint256",
          "name": "",
          "type": "uint256"
        }
      ],
      "stateMutability": "view",
      "type": "function"
    },
    {
      "inputs": [
        {
          "internalType": "uint256",
          "name": "tokenId",
          "type": "uint256"
        }
      ],
      "name": "getApproved",
      "outputs": [
        {
          "internalType": "address",
          "name": "",
          "type": "address"
        }
      ],
      "stateMutability": "view",
      "type": "function"
    },
    {
      "inputs": [
        {
          "internalType": "address",
          "name": "owner",
          "type": "address"
        },
        {
          "internalType": "address",
          "name": "operator",
          "type": "address"
        }
      ],
      "name": "isApprovedForAll",
      "outputs": [
        {
          "internalType": "bool",
          "name": "",
          "type": "bool"
        }
      ],
      "stateMutability": "view",
      "type": "function"
    },
    {
      "inputs": [],
      "name": "name",
      "outputs": [
        {
          "internalType": "string",
          "name": "",
          "type": "string"
        }
      ],
      "stateMutability": "view",
      "type": "function"
    },
    {
      "inputs": [],
      "name": "owner",
      "outputs": [
        {
          "internalType": "address",
          "name": "",
          "type": "address"
        }
      ],
      "stateMutability": "view",
      "type": "function"
    },
    {
      "inputs": [
        {
          "internalType": "uint256",
          "name": "tokenId",
          "type": "uint256"
        }
      ],
      "name": "ownerOf",
      "outputs": [
        {
          "internalType": "address",
          "name": "",
          "type": "address"
        }
      ],
      "stateMutability": "view",
      "type": "function"
    },
    {
      "inputs": [],
      "name": "publicMint",
      "outputs": [],
      "stateMutability": "payable",
      "type": "function"
    },
    {
      "inputs": [],
      "name": "renounceOwnership",
      "outputs": [],
      "stateMutability": "nonpayable",
      "type": "function"
    },
    {
      "inputs": [
        {
          "internalType": "address",
          "name": "to",
          "type": "address"
        }
      ],
      "name": "safeMint",
      "outputs": [],
      "stateMutability": "nonpayable",
      "type": "function"
    },
    {
      "inputs": [
        {
          "internalType": "address",
          "name": "from",
          "type": "address"
        },
        {
          "internalType": "address",
          "name": "to",
          "type": "address"
        },
        {
          "internalType": "uint256",
          "name": "tokenId",
          "type": "uint256"
        }
      ],
      "name": "safeTransferFrom",
      "outputs": [],
      "stateMutability": "nonpayable",
      "type": "function"
    },
    {
      "inputs": [
        {
          "internalType": "address",
          "name": "from",
          "type": "address"
        },
        {
          "internalType": "address",
          "name": "to",
          "type": "address"
        },
        {
          "internalType": "uint256",
          "name": "tokenId",
          "type": "uint256"
        },
        {
          "internalType": "bytes",
          "name": "data",
          "type": "bytes"
        }
      ],
      "name": "safeTransferFrom",
      "outputs": [],
      "stateMutability": "nonpayable",
      "type": "function"
    },
    {
      "inputs": [
        {
          "internalType": "address",
          "name": "operator",
          "type": "address"
        },
        {
          "internalType": "bool",
          "name": "approved",
          "type": "bool"
        }
      ],
      "name": "setApprovalForAll",
      "outputs": [],
      "stateMutability": "nonpayable",
      "type": "function"
    },
    {
      "inputs": [
        {
          "internalType": "bytes4",
          "name": "interfaceId",
          "type": "bytes4"
        }
      ],
      "name": "supportsInterface",
      "outputs": [
        {
          "internalType": "bool",
          "name": "",
          "type": "bool"
        }
      ],
      "stateMutability": "view",
      "type": "function"
    },
    {
      "inputs": [],
      "name": "symbol",
      "outputs": [
        {
          "internalType": "string",
          "name": "",
          "type": "string"
        }
      ],
      "stateMutability": "view",
      "type": "function"
    },
    {
      "inputs": [
        {
          "internalType": "uint256",
          "name": "tokenId",
          "type": "uint256"
        }
      ],
      "name": "tokenURI",
      "outputs": [
        {
          "internalType": "string",
          "name": "",
          "type": "string"
        }
      ],
      "stateMutability": "view",
      "type": "function"
    },
    {
      "inputs": [
        {
          "internalType": "address",
          "name": "from",
          "type": "address"
        },
        {
          "internalType": "address",
          "name": "to",
          "type": "address"
        },
        {
          "internalType": "uint256",
          "name": "tokenId",
          "type": "uint256"
        }
      ],
      "name": "transferFrom",
      "outputs": [],
      "stateMutability": "nonpayable",
      "type": "function"
    },
    {
      "inputs": [
        {
          "internalType": "address",
          "name": "newOwner",
          "type": "address"
        }
      ],
      "name": "transferOwnership",
      "outputs": [],
      "stateMutability": "nonpayable",
      "type": "function"
    },
    {
      "inputs": [],
      "name": "withDraw",
      "outputs": [],
      "stateMutability": "nonpayable",
      "type": "function"
    }
  ],
  "bytecode": "0x60a06040523480156200001157600080fd5b50604051620031d5380380620031d583398181016040528101906200003791906200032c565b808281600090816200004a919062000607565b5080600190816200005c919062000607565b5050506200007f620000736200009060201b60201c565b6200009860201b60201c565b8260808181525050505050620006ee565b600033905090565b6000600660009054906101000a900473ffffffffffffffffffffffffffffffffffffffff16905081600660006101000a81548173ffffffffffffffffffffffffffffffffffffffff021916908373ffffffffffffffffffffffffffffffffffffffff1602179055508173ffffffffffffffffffffffffffffffffffffffff168173ffffffffffffffffffffffffffffffffffffffff167f8be0079c531659141344cd1fd0a4f28419497f9722a3daafe3b4186f6b6457e060405160405180910390a35050565b6000604051905090565b600080fd5b600080fd5b6000819050919050565b620001878162000172565b81146200019357600080fd5b50565b600081519050620001a7816200017c565b92915050565b600080fd5b600080fd5b6000601f19601f8301169050919050565b7f4e487b7100000000000000000000000000000000000000000000000000000000600052604160045260246000fd5b6200020282620001b7565b810181811067ffffffffffffffff82111715620002245762000223620001c8565b5b80604052505050565b6000620002396200015e565b9050620002478282620001f7565b919050565b600067ffffffffffffffff8211156200026a5762000269620001c8565b5b6200027582620001b7565b9050602081019050919050565b60005b83811015620002a257808201518184015260208101905062000285565b60008484015250505050565b6000620002c5620002bf846200024c565b6200022d565b905082815260208101848484011115620002e457620002e3620001b2565b5b620002f184828562000282565b509392505050565b600082601f830112620003115762000310620001ad565b5b815162000323848260208601620002ae565b91505092915050565b60008060006060848603121562000348576200034762000168565b5b6000620003588682870162000196565b935050602084015167ffffffffffffffff8111156200037c576200037b6200016d565b5b6200038a86828701620002f9565b925050604084015167ffffffffffffffff811115620003ae57620003ad6200016d565b5b620003bc86828701620002f9565b9150509250925092565b600081519050919050565b7f4e487b7100000000000000000000000000000000000000000000000000000000600052602260045260246000fd5b600060028204905060018216806200041957607f821691505b6020821081036200042f576200042e620003d1565b5b50919050565b60008190508160005260206000209050919050565b60006020601f8301049050919050565b600082821b905092915050565b600060088302620004997fffffffffffffffffffffffffffffffffffffffffffffffffffffffffffffffff826200045a565b620004a586836200045a565b95508019841693508086168417925050509392505050565b6000819050919050565b6000620004e8620004e2620004dc8462000172565b620004bd565b62000172565b9050919050565b6000819050919050565b6200050483620004c7565b6200051c6200051382620004ef565b84845462000467565b825550505050565b600090565b6200053362000524565b62000540818484620004f9565b505050565b5b8181101562000568576200055c60008262000529565b60018101905062000546565b5050565b601f821115620005b757620005818162000435565b6200058c846200044a565b810160208510156200059c578190505b620005b4620005ab856200044a565b83018262000545565b50505b505050565b600082821c905092915050565b6000620005dc60001984600802620005bc565b1980831691505092915050565b6000620005f78383620005c9565b9150826002028217905092915050565b6200061282620003c6565b67ffffffffffffffff8111156200062e576200062d620001c8565b5b6200063a825462000400565b620006478282856200056c565b600060209050601f8311600181146200067f57600084156200066a578287015190505b620006768582620005e9565b865550620006e6565b601f1984166200068f8662000435565b60005b82811015620006b95784890151825560018201915060208501945060208101905062000692565b86831015620006d95784890151620006d5601f891682620005c9565b8355505b6001600288020188555050505b505050505050565b608051612acb6200070a60003960006107e30152612acb6000f3fe6080604052600436106101145760003560e01c80636352211e116100a0578063a22cb46511610064578063a22cb4651461036a578063b88d4fde14610393578063c87b56dd146103bc578063e985e9c5146103f9578063f2fde38b1461043657610114565b80636352211e1461028357806370a08231146102c0578063715018a6146102fd5780638da5cb5b1461031457806395d89b411461033f57610114565b80630fdb1c10116100e75780630fdb1c10146101e757806323b872dd146101fe57806326092b831461022757806340d097c31461023157806342842e0e1461025a57610114565b806301ffc9a71461011957806306fdde0314610156578063081812fc14610181578063095ea7b3146101be575b600080fd5b34801561012557600080fd5b50610140600480360381019061013b9190611c5d565b61045f565b60405161014d9190611ca5565b60405180910390f35b34801561016257600080fd5b5061016b610541565b6040516101789190611d50565b60405180910390f35b34801561018d57600080fd5b506101a860048036038101906101a39190611da8565b6105d3565b6040516101b59190611e16565b60405180910390f35b3480156101ca57600080fd5b506101e560048036038101906101e09190611e5d565b610619565b005b3480156101f357600080fd5b506101fc610730565b005b34801561020a57600080fd5b5061022560048036038101906102209190611e9d565b610781565b005b61022f6107e1565b005b34801561023d57600080fd5b5061025860048036038101906102539190611ef0565b610869565b005b34801561026657600080fd5b50610281600480360381019061027c9190611e9d565b610897565b005b34801561028f57600080fd5b506102aa60048036038101906102a59190611da8565b6108b7565b6040516102b79190611e16565b60405180910390f35b3480156102cc57600080fd5b506102e760048036038101906102e29190611ef0565b61093d565b6040516102f49190611f2c565b60405180910390f35b34801561030957600080fd5b506103126109f4565b005b34801561032057600080fd5b50610329610a08565b6040516103369190611e16565b60405180910390f35b34801561034b57600080fd5b50610354610a32565b6040516103619190611d50565b60405180910390f35b34801561037657600080fd5b50610391600480360381019061038c9190611f73565b610ac4565b005b34801561039f57600080fd5b506103ba60048036038101906103b591906120e8565b610ada565b005b3480156103c857600080fd5b506103e360048036038101906103de9190611da8565b610b3c565b6040516103f09190611d50565b60405180910390f35b34801561040557600080fd5b50610420600480360381019061041b919061216b565b610ba4565b60405161042d9190611ca5565b60405180910390f35b34801561044257600080fd5b5061045d60048036038101906104589190611ef0565b610c38565b005b60007f80ac58cd000000000000000000000000000000000000000000000000000000007bffffffffffffffffffffffffffffffffffffffffffffffffffffffff1916827bffffffffffffffffffffffffffffffffffffffffffffffffffffffff1916148061052a57507f5b5e139f000000000000000000000000000000000000000000000000000000007bffffffffffffffffffffffffffffffffffffffffffffffffffffffff1916827bffffffffffffffffffffffffffffffffffffffffffffffffffffffff1916145b8061053a575061053982610cbb565b5b9050919050565b606060008054610550906121da565b80601f016020809104026020016040519081016040528092919081815260200182805461057c906121da565b80156105c95780601f1061059e576101008083540402835291602001916105c9565b820191906000526020600020905b8154815290600101906020018083116105ac57829003601f168201915b5050505050905090565b60006105de82610d25565b6004600083815260200190815260200160002060009054906101000a900473ffffffffffffffffffffffffffffffffffffffff169050919050565b6000610624826108b7565b90508073ffffffffffffffffffffffffffffffffffffffff168373ffffffffffffffffffffffffffffffffffffffff1603610694576040517f08c379a000000000000000000000000000000000000000000000000000000000815260040161068b9061227d565b60405180910390fd5b8073ffffffffffffffffffffffffffffffffffffffff166106b3610d70565b73ffffffffffffffffffffffffffffffffffffffff1614806106e257506106e1816106dc610d70565b610ba4565b5b610721576040517f08c379a00000000000000000000000000000000000000000000000000000000081526004016107189061230f565b60405180910390fd5b61072b8383610d78565b505050565b610738610e31565b3373ffffffffffffffffffffffffffffffffffffffff166108fc479081150290604051600060405180830381858888f1935050505015801561077e573d6000803e3d6000fd5b50565b61079261078c610d70565b82610eaf565b6107d1576040517f08c379a00000000000000000000000000000000000000000000000000000000081526004016107c8906123a1565b60405180910390fd5b6107dc838383610f44565b505050565b7f0000000000000000000000000000000000000000000000000000000000000000341015610844576040517f08c379a000000000000000000000000000000000000000000000000000000000815260040161083b9061240d565b60405180910390fd5b6000610850600761123d565b905061085c600761124b565b6108663382611261565b50565b610871610e31565b600061087d600761123d565b9050610889600761124b565b6108938282611261565b5050565b6108b283838360405180602001604052806000815250610ada565b505050565b6000806108c38361127f565b9050600073ffffffffffffffffffffffffffffffffffffffff168173ffffffffffffffffffffffffffffffffffffffff1603610934576040517f08c379a000000000000000000000000000000000000000000000000000000000815260040161092b90612479565b60405180910390fd5b80915050919050565b60008073ffffffffffffffffffffffffffffffffffffffff168273ffffffffffffffffffffffffffffffffffffffff16036109ad576040517f08c379a00000000000000000000000000000000000000000000000000000000081526004016109a49061250b565b60405180910390fd5b600360008373ffffffffffffffffffffffffffffffffffffffff1673ffffffffffffffffffffffffffffffffffffffff168152602001908152602001600020549050919050565b6109fc610e31565b610a0660006112bc565b565b6000600660009054906101000a900473ffffffffffffffffffffffffffffffffffffffff16905090565b606060018054610a41906121da565b80601f0160208091040260200160405190810160405280929190818152602001828054610a6d906121da565b8015610aba5780601f10610a8f57610100808354040283529160200191610aba565b820191906000526020600020905b815481529060010190602001808311610a9d57829003601f168201915b5050505050905090565b610ad6610acf610d70565b8383611382565b5050565b610aeb610ae5610d70565b83610eaf565b610b2a576040517f08c379a0000000000000000000000000000000000000000000000000000000008152600401610b21906123a1565b60405180910390fd5b610b36848484846114ee565b50505050565b6060610b4782610d25565b6000610b5161154a565b90506000815111610b715760405180602001604052806000815250610b9c565b80610b7b84611561565b604051602001610b8c929190612567565b6040516020818303038152906040525b915050919050565b6000600560008473ffffffffffffffffffffffffffffffffffffffff1673ffffffffffffffffffffffffffffffffffffffff16815260200190815260200160002060008373ffffffffffffffffffffffffffffffffffffffff1673ffffffffffffffffffffffffffffffffffffffff16815260200190815260200160002060009054906101000a900460ff16905092915050565b610c40610e31565b600073ffffffffffffffffffffffffffffffffffffffff168173ffffffffffffffffffffffffffffffffffffffff1603610caf576040517f08c379a0000000000000000000000000000000000000000000000000000000008152600401610ca6906125fd565b60405180910390fd5b610cb8816112bc565b50565b60007f01ffc9a7000000000000000000000000000000000000000000000000000000007bffffffffffffffffffffffffffffffffffffffffffffffffffffffff1916827bffffffffffffffffffffffffffffffffffffffffffffffffffffffff1916149050919050565b610d2e8161162f565b610d6d576040517f08c379a0000000000000000000000000000000000000000000000000000000008152600401610d6490612479565b60405180910390fd5b50565b600033905090565b816004600083815260200190815260200160002060006101000a81548173ffffffffffffffffffffffffffffffffffffffff021916908373ffffffffffffffffffffffffffffffffffffffff160217905550808273ffffffffffffffffffffffffffffffffffffffff16610deb836108b7565b73ffffffffffffffffffffffffffffffffffffffff167f8c5be1e5ebec7d5bd14f71427d1e84f3dd0314c0f7b2291e5b200ac8c7c3b92560405160405180910390a45050565b610e39610d70565b73ffffffffffffffffffffffffffffffffffffffff16610e57610a08565b73ffffffffffffffffffffffffffffffffffffffff1614610ead576040517f08c379a0000000000000000000000000000000000000000000000000000000008152600401610ea490612669565b60405180910390fd5b565b600080610ebb836108b7565b90508073ffffffffffffffffffffffffffffffffffffffff168473ffffffffffffffffffffffffffffffffffffffff161480610efd5750610efc8185610ba4565b5b80610f3b57508373ffffffffffffffffffffffffffffffffffffffff16610f23846105d3565b73ffffffffffffffffffffffffffffffffffffffff16145b91505092915050565b8273ffffffffffffffffffffffffffffffffffffffff16610f64826108b7565b73ffffffffffffffffffffffffffffffffffffffff1614610fba576040517f08c379a0000000000000000000000000000000000000000000000000000000008152600401610fb1906126fb565b60405180910390fd5b600073ffffffffffffffffffffffffffffffffffffffff168273ffffffffffffffffffffffffffffffffffffffff1603611029576040517f08c379a00000000000000000000000000000000000000000000000000000000081526004016110209061278d565b60405180910390fd5b6110368383836001611670565b8273ffffffffffffffffffffffffffffffffffffffff16611056826108b7565b73ffffffffffffffffffffffffffffffffffffffff16146110ac576040517f08c379a00000000000000000000000000000000000000000000000000000000081526004016110a3906126fb565b60405180910390fd5b6004600082815260200190815260200160002060006101000a81549073ffffffffffffffffffffffffffffffffffffffff02191690556001600360008573ffffffffffffffffffffffffffffffffffffffff1673ffffffffffffffffffffffffffffffffffffffff168152602001908152602001600020600082825403925050819055506001600360008473ffffffffffffffffffffffffffffffffffffffff1673ffffffffffffffffffffffffffffffffffffffff16815260200190815260200160002060008282540192505081905550816002600083815260200190815260200160002060006101000a81548173ffffffffffffffffffffffffffffffffffffffff021916908373ffffffffffffffffffffffffffffffffffffffff160217905550808273ffffffffffffffffffffffffffffffffffffffff168473ffffffffffffffffffffffffffffffffffffffff167fddf252ad1be2c89b69c2b068fc378daa952ba7f163c4a11628f55a4df523b3ef60405160405180910390a46112388383836001611676565b505050565b600081600001549050919050565b6001816000016000828254019250508190555050565b61127b82826040518060200160405280600081525061167c565b5050565b60006002600083815260200190815260200160002060009054906101000a900473ffffffffffffffffffffffffffffffffffffffff169050919050565b6000600660009054906101000a900473ffffffffffffffffffffffffffffffffffffffff16905081600660006101000a81548173ffffffffffffffffffffffffffffffffffffffff021916908373ffffffffffffffffffffffffffffffffffffffff1602179055508173ffffffffffffffffffffffffffffffffffffffff168173ffffffffffffffffffffffffffffffffffffffff167f8be0079c531659141344cd1fd0a4f28419497f9722a3daafe3b4186f6b6457e060405160405180910390a35050565b8173ffffffffffffffffffffffffffffffffffffffff168373ffffffffffffffffffffffffffffffffffffffff16036113f0576040517f08c379a00000000000000000000000000000000000000000000000000000000081526004016113e7906127f9565b60405180910390fd5b80600560008573ffffffffffffffffffffffffffffffffffffffff1673ffffffffffffffffffffffffffffffffffffffff16815260200190815260200160002060008473ffffffffffffffffffffffffffffffffffffffff1673ffffffffffffffffffffffffffffffffffffffff16815260200190815260200160002060006101000a81548160ff0219169083151502179055508173ffffffffffffffffffffffffffffffffffffffff168373ffffffffffffffffffffffffffffffffffffffff167f17307eab39ab6107e8899845ad3d59bd9653f200f220920489ca2b5937696c31836040516114e19190611ca5565b60405180910390a3505050565b6114f9848484610f44565b611505848484846116d7565b611544576040517f08c379a000000000000000000000000000000000000000000000000000000000815260040161153b9061288b565b60405180910390fd5b50505050565b606060405180602001604052806000815250905090565b6060600060016115708461185e565b01905060008167ffffffffffffffff81111561158f5761158e611fbd565b5b6040519080825280601f01601f1916602001820160405280156115c15781602001600182028036833780820191505090505b509050600082602001820190505b600115611624578080600190039150507f3031323334353637383961626364656600000000000000000000000000000000600a86061a8153600a8581611618576116176128ab565b5b049450600085036115cf575b819350505050919050565b60008073ffffffffffffffffffffffffffffffffffffffff166116518361127f565b73ffffffffffffffffffffffffffffffffffffffff1614159050919050565b50505050565b50505050565b61168683836119b1565b61169360008484846116d7565b6116d2576040517f08c379a00000000000000000000000000000000000000000000000000000000081526004016116c99061288b565b60405180910390fd5b505050565b60006116f88473ffffffffffffffffffffffffffffffffffffffff16611bce565b15611851578373ffffffffffffffffffffffffffffffffffffffff1663150b7a02611721610d70565b8786866040518563ffffffff1660e01b8152600401611743949392919061292f565b6020604051808303816000875af192505050801561177f57506040513d601f19601f8201168201806040525081019061177c9190612990565b60015b611801573d80600081146117af576040519150601f19603f3d011682016040523d82523d6000602084013e6117b4565b606091505b5060008151036117f9576040517f08c379a00000000000000000000000000000000000000000000000000000000081526004016117f09061288b565b60405180910390fd5b805181602001fd5b63150b7a0260e01b7bffffffffffffffffffffffffffffffffffffffffffffffffffffffff1916817bffffffffffffffffffffffffffffffffffffffffffffffffffffffff191614915050611856565b600190505b949350505050565b600080600090507a184f03e93ff9f4daa797ed6e38ed64bf6a1f01000000000000000083106118bc577a184f03e93ff9f4daa797ed6e38ed64bf6a1f01000000000000000083816118b2576118b16128ab565b5b0492506040810190505b6d04ee2d6d415b85acef810000000083106118f9576d04ee2d6d415b85acef810000000083816118ef576118ee6128ab565b5b0492506020810190505b662386f26fc10000831061192857662386f26fc10000838161191e5761191d6128ab565b5b0492506010810190505b6305f5e1008310611951576305f5e1008381611947576119466128ab565b5b0492506008810190505b612710831061197657612710838161196c5761196b6128ab565b5b0492506004810190505b60648310611999576064838161198f5761198e6128ab565b5b0492506002810190505b600a83106119a8576001810190505b80915050919050565b600073ffffffffffffffffffffffffffffffffffffffff168273ffffffffffffffffffffffffffffffffffffffff1603611a20576040517f08c379a0000000000000000000000000000000000000000000000000000000008152600401611a1790612a09565b60405180910390fd5b611a298161162f565b15611a69576040517f08c379a0000000000000000000000000000000000000000000000000000000008152600401611a6090612a75565b60405180910390fd5b611a77600083836001611670565b611a808161162f565b15611ac0576040517f08c379a0000000000000000000000000000000000000000000000000000000008152600401611ab790612a75565b60405180910390fd5b6001600360008473ffffffffffffffffffffffffffffffffffffffff1673ffffffffffffffffffffffffffffffffffffffff16815260200190815260200160002060008282540192505081905550816002600083815260200190815260200160002060006101000a81548173ffffffffffffffffffffffffffffffffffffffff021916908373ffffffffffffffffffffffffffffffffffffffff160217905550808273ffffffffffffffffffffffffffffffffffffffff16600073ffffffffffffffffffffffffffffffffffffffff167fddf252ad1be2c89b69c2b068fc378daa952ba7f163c4a11628f55a4df523b3ef60405160405180910390a4611bca600083836001611676565b5050565b6000808273ffffffffffffffffffffffffffffffffffffffff163b119050919050565b6000604051905090565b600080fd5b600080fd5b60007fffffffff0000000000000000000000000000000000000000000000000000000082169050919050565b611c3a81611c05565b8114611c4557600080fd5b50565b600081359050611c5781611c31565b92915050565b600060208284031215611c7357611c72611bfb565b5b6000611c8184828501611c48565b91505092915050565b60008115159050919050565b611c9f81611c8a565b82525050565b6000602082019050611cba6000830184611c96565b92915050565b600081519050919050565b600082825260208201905092915050565b60005b83811015611cfa578082015181840152602081019050611cdf565b60008484015250505050565b6000601f19601f8301169050919050565b6000611d2282611cc0565b611d2c8185611ccb565b9350611d3c818560208601611cdc565b611d4581611d06565b840191505092915050565b60006020820190508181036000830152611d6a8184611d17565b905092915050565b6000819050919050565b611d8581611d72565b8114611d9057600080fd5b50565b600081359050611da281611d7c565b92915050565b600060208284031215611dbe57611dbd611bfb565b5b6000611dcc84828501611d93565b91505092915050565b600073ffffffffffffffffffffffffffffffffffffffff82169050919050565b6000611e0082611dd5565b9050919050565b611e1081611df5565b82525050565b6000602082019050611e2b6000830184611e07565b92915050565b611e3a81611df5565b8114611e4557600080fd5b50565b600081359050611e5781611e31565b92915050565b60008060408385031215611e7457611e73611bfb565b5b6000611e8285828601611e48565b9250506020611e9385828601611d93565b9150509250929050565b600080600060608486031215611eb657611eb5611bfb565b5b6000611ec486828701611e48565b9350506020611ed586828701611e48565b9250506040611ee686828701611d93565b9150509250925092565b600060208284031215611f0657611f05611bfb565b5b6000611f1484828501611e48565b91505092915050565b611f2681611d72565b82525050565b6000602082019050611f416000830184611f1d565b92915050565b611f5081611c8a565b8114611f5b57600080fd5b50565b600081359050611f6d81611f47565b92915050565b60008060408385031215611f8a57611f89611bfb565b5b6000611f9885828601611e48565b9250506020611fa985828601611f5e565b9150509250929050565b600080fd5b600080fd5b7f4e487b7100000000000000000000000000000000000000000000000000000000600052604160045260246000fd5b611ff582611d06565b810181811067ffffffffffffffff8211171561201457612013611fbd565b5b80604052505050565b6000612027611bf1565b90506120338282611fec565b919050565b600067ffffffffffffffff82111561205357612052611fbd565b5b61205c82611d06565b9050602081019050919050565b82818337600083830152505050565b600061208b61208684612038565b61201d565b9050828152602081018484840111156120a7576120a6611fb8565b5b6120b2848285612069565b509392505050565b600082601f8301126120cf576120ce611fb3565b5b81356120df848260208601612078565b91505092915050565b6000806000806080858703121561210257612101611bfb565b5b600061211087828801611e48565b945050602061212187828801611e48565b935050604061213287828801611d93565b925050606085013567ffffffffffffffff81111561215357612152611c00565b5b61215f878288016120ba565b91505092959194509250565b6000806040838503121561218257612181611bfb565b5b600061219085828601611e48565b92505060206121a185828601611e48565b9150509250929050565b7f4e487b7100000000000000000000000000000000000000000000000000000000600052602260045260246000fd5b600060028204905060018216806121f257607f821691505b602082108103612205576122046121ab565b5b50919050565b7f4552433732313a20617070726f76616c20746f2063757272656e74206f776e6560008201527f7200000000000000000000000000000000000000000000000000000000000000602082015250565b6000612267602183611ccb565b91506122728261220b565b604082019050919050565b600060208201905081810360008301526122968161225a565b9050919050565b7f4552433732313a20617070726f76652063616c6c6572206973206e6f7420746f60008201527f6b656e206f776e6572206f7220617070726f76656420666f7220616c6c000000602082015250565b60006122f9603d83611ccb565b91506123048261229d565b604082019050919050565b60006020820190508181036000830152612328816122ec565b9050919050565b7f4552433732313a2063616c6c6572206973206e6f7420746f6b656e206f776e6560008201527f72206f7220617070726f76656400000000000000000000000000000000000000602082015250565b600061238b602d83611ccb565b91506123968261232f565b604082019050919050565b600060208201905081810360008301526123ba8161237e565b9050919050565b7f7072696365206572726f72000000000000000000000000000000000000000000600082015250565b60006123f7600b83611ccb565b9150612402826123c1565b602082019050919050565b60006020820190508181036000830152612426816123ea565b9050919050565b7f4552433732313a20696e76616c696420746f6b656e2049440000000000000000600082015250565b6000612463601883611ccb565b915061246e8261242d565b602082019050919050565b6000602082019050818103600083015261249281612456565b9050919050565b7f4552433732313a2061646472657373207a65726f206973206e6f74206120766160008201527f6c6964206f776e65720000000000000000000000000000000000000000000000602082015250565b60006124f5602983611ccb565b915061250082612499565b604082019050919050565b60006020820190508181036000830152612524816124e8565b9050919050565b600081905092915050565b600061254182611cc0565b61254b818561252b565b935061255b818560208601611cdc565b80840191505092915050565b60006125738285612536565b915061257f8284612536565b91508190509392505050565b7f4f776e61626c653a206e6577206f776e657220697320746865207a65726f206160008201527f6464726573730000000000000000000000000000000000000000000000000000602082015250565b60006125e7602683611ccb565b91506125f28261258b565b604082019050919050565b60006020820190508181036000830152612616816125da565b9050919050565b7f4f776e61626c653a2063616c6c6572206973206e6f7420746865206f776e6572600082015250565b6000612653602083611ccb565b915061265e8261261d565b602082019050919050565b6000602082019050818103600083015261268281612646565b9050919050565b7f4552433732313a207472616e736665722066726f6d20696e636f72726563742060008201527f6f776e6572000000000000000000000000000000000000000000000000000000602082015250565b60006126e5602583611ccb565b91506126f082612689565b604082019050919050565b60006020820190508181036000830152612714816126d8565b9050919050565b7f4552433732313a207472616e7366657220746f20746865207a65726f2061646460008201527f7265737300000000000000000000000000000000000000000000000000000000602082015250565b6000612777602483611ccb565b91506127828261271b565b604082019050919050565b600060208201905081810360008301526127a68161276a565b9050919050565b7f4552433732313a20617070726f766520746f2063616c6c657200000000000000600082015250565b60006127e3601983611ccb565b91506127ee826127ad565b602082019050919050565b60006020820190508181036000830152612812816127d6565b9050919050565b7f4552433732313a207472616e7366657220746f206e6f6e20455243373231526560008201527f63656976657220696d706c656d656e7465720000000000000000000000000000602082015250565b6000612875603283611ccb565b915061288082612819565b604082019050919050565b600060208201905081810360008301526128a481612868565b9050919050565b7f4e487b7100000000000000000000000000000000000000000000000000000000600052601260045260246000fd5b600081519050919050565b600082825260208201905092915050565b6000612901826128da565b61290b81856128e5565b935061291b818560208601611cdc565b61292481611d06565b840191505092915050565b60006080820190506129446000830187611e07565b6129516020830186611e07565b61295e6040830185611f1d565b818103606083015261297081846128f6565b905095945050505050565b60008151905061298a81611c31565b92915050565b6000602082840312156129a6576129a5611bfb565b5b60006129b48482850161297b565b91505092915050565b7f4552433732313a206d696e7420746f20746865207a65726f2061646472657373600082015250565b60006129f3602083611ccb565b91506129fe826129bd565b602082019050919050565b60006020820190508181036000830152612a22816129e6565b9050919050565b7f4552433732313a20746f6b656e20616c7265616479206d696e74656400000000600082015250565b6000612a5f601c83611ccb565b9150612a6a82612a29565b602082019050919050565b60006020820190508181036000830152612a8e81612a52565b905091905056fea264697066735822122061566fcc4f898a6f4a64222c6797ffc5593dd163e1faea2e555db63501bf002064736f6c63430008110033",
  "linkReferences": {},
  "deployedLinkReferences": {}
}